:020000040000FA
:10000000BA0AFF0FFF0FFF0FFF0F000C3100ED0CBE
:100010002809000C28092009ED0C2809010C2809E1
:100020002009ED0C2809040C28092009ED0C2809E9
:10003000020C28092009ED0C2809000C2809BA0A2D
:10004000C80C2C00FA0C2E00B409EC02220A00089D
:100050003000B2092604E90C0600B2090604E80CD7
:100060000600B209EA0C06002606340A1007060448
:100070001006060526073A0A26063C0A300706043B
:10008000300606052607420A2606440A50070604DB
:100090005006060526074A0A26064C0A700706047B
:1000A000700606052607520A2606540A900706041B
:1000B0009006060526075A0A26065C0AB0070604BB
:1000C000B00606052607620A2606640AD00706045B
:1000D000D006060526076A0A26066C0AF0070604FB
:1000E000F00606052607720A010C1006010F3006FD
:1000F000010F5006010F7006010F9006010FB006A8
:10010000010FD006010FF006010F2F002606860A08
:100110000F0706040F06060526078C0A26068E0A18
:10012000EB0C06002607920A2606940A2607960A72
:100130000B0C2F0026069A0A26079C0AEF029A0A41
:100140000008AD09AD09AD09AD09AD09AD09AD09AD
:10015000AD09AD09AD09AD0900082606AD0A2607AF
:10016000AF0A0008140C2700000000000000E7029E
:10017000B40A000800000000000000001204EB0CAC
:1001800006008604000C2E0029006E05400C280095
:10019000400C2A00000C2B00130C2D002C006E05C7
:1001A000D10A2607D80A0E05A606E20A2E05D10AAC
:1001B0000E07D40A0E04CA06260BEA06340BEA021E
:1001C0002D0B320B2E07D10A2E04C806070BE806AA
:1001D000FC0AE802EC0AF20A090686050907860409
:1001E0002903D10AAD02200C8D004307F90A130C34
:1001F0002D00E8058605D10AC805AE040C028D0065
:100200004307050B6E058604D10A8605D10AAE05A3
:10021000090C28001C0C4E014306140B6E061A0B29
:100220008E06220B4E061E0B0D0224000002290032
:100230008604D10A000C29008604D10AFE0C29008C
:100240004E041A0BFF0C29008E041A0B000C2B0015
:10025000090C2A000606810BD10A03042B030606AB
:10026000EB05D10AEA05D10ACA050607850B0C027F
:1002700024000B0220006E04AC02200C8C0043070B
:10028000430B130C2C000C028D0043068E05F00C62
:100290008B0043074F0BF105AE078605D10AF10627
:1002A000650BF104E10C8B0143061205770C8B0101
:1002B00043075D0B12076D0B12047E0C8B00430687
:1002C000690B580C8B004306710BF104AE078605D1
:1002D000D10A1102010F3100740B1102020F31001B
:1002E000740B1102040F3100ED0C28091102070EE6
:1002F0002809B209400C2800AE078605D10A000083
:1003000000080000640C2A00880B0000640C2A001E
:100310000000460500000000000000000000000092
:100320000000EA028A0BAE078605AE044E054604BD
:10033000C80AFF0FFF0FFF0FFF0FFF0FFF0FFF0F89
:10034000FF0FFF0FFF0FFF0FFF0FFF0FFF0FFF0F3D
:10035000FF0FFF0FFF0FFF0FFF0FFF0FFF0FFF0F2D
:10036000FF0FFF0FFF0FFF0FFF0FFF0FFF0FFF0F1D
:10037000FF0FFF0FFF0FFF0FFF0FFF0FFF0FFF0F0D
:10038000FF0FFF0FFF0FFF0FFF0FFF0FFF0FFF0FFD
:10039000FF0FFF0FFF0FFF0FFF0FFF0FFF0FFF0FED
:1003A000FF0FFF0FFF0FFF0FFF0FFF0FFF0FFF0FDD
:1003B000FF0FFF0FFF0FFF0FFF0FFF0FFF0FFF0FCD
:1003C000FF0FFF0FFF0FFF0FFF0FFF0FFF0FFF0FBD
:1003D000FF0FFF0FFF0FFF0FFF0FFF0FFF0FFF0FAD
:1003E000FF0FFF0FFF0FFF0FFF0FFF0FFF0FFF0F9D
:0E03F000FF0FFF0FFF0FFF0FFF0FFF0FFF0F9D
:021FFE00FA0FD8
:080400000E00040001000400DD
:0203FE008C0C65
:00000001FF
